{
  "contractName": "VoltExchange",
  "abi": [
    {
      "constant": true,
      "inputs": [
        {
          "name": "addr",
          "type": "address"
        }
      ],
      "name": "getBalance",
      "outputs": [
        {
          "name": "bal",
          "type": "uint256"
        }
      ],
      "payable": false,
      "stateMutability": "view",
      "type": "function"
    },
    {
      "constant": false,
      "inputs": [],
      "name": "depositETH",
      "outputs": [],
      "payable": true,
      "stateMutability": "payable",
      "type": "function"
    },
    {
      "constant": false,
      "inputs": [
        {
          "name": "Wh",
          "type": "int256"
        }
      ],
      "name": "estUsage",
      "outputs": [],
      "payable": false,
      "stateMutability": "nonpayable",
      "type": "function"
    },
    {
      "constant": false,
      "inputs": [
        {
          "name": "demand",
          "type": "int256"
        },
        {
          "name": "price",
          "type": "int256"
        }
      ],
      "name": "offerDemand",
      "outputs": [],
      "payable": false,
      "stateMutability": "nonpayable",
      "type": "function"
    },
    {
      "constant": false,
      "inputs": [
        {
          "name": "generation",
          "type": "int256"
        },
        {
          "name": "price",
          "type": "int256"
        }
      ],
      "name": "offerGeneration",
      "outputs": [],
      "payable": false,
      "stateMutability": "nonpayable",
      "type": "function"
    },
    {
      "constant": false,
      "inputs": [
        {
          "name": "losses",
          "type": "int256"
        }
      ],
      "name": "recieveLossesEst",
      "outputs": [],
      "payable": false,
      "stateMutability": "nonpayable",
      "type": "function"
    },
    {
      "constant": false,
      "inputs": [],
      "name": "defineMP",
      "outputs": [],
      "payable": false,
      "stateMutability": "nonpayable",
      "type": "function"
    },
    {
      "constant": true,
      "inputs": [],
      "name": "getMP",
      "outputs": [
        {
          "name": "bal",
          "type": "int256"
        }
      ],
      "payable": false,
      "stateMutability": "view",
      "type": "function"
    },
    {
      "constant": false,
      "inputs": [
        {
          "name": "Wh",
          "type": "int256"
        }
      ],
      "name": "actUsage",
      "outputs": [],
      "payable": false,
      "stateMutability": "nonpayable",
      "type": "function"
    },
    {
      "constant": false,
      "inputs": [
        {
          "name": "amount",
          "type": "int256"
        }
      ],
      "name": "setUseCharge",
      "outputs": [],
      "payable": false,
      "stateMutability": "nonpayable",
      "type": "function"
    },
    {
      "constant": false,
      "inputs": [],
      "name": "settle",
      "outputs": [],
      "payable": false,
      "stateMutability": "nonpayable",
      "type": "function"
    },
    {
      "constant": false,
      "inputs": [
        {
          "name": "addr",
          "type": "address"
        }
      ],
      "name": "timeToDie",
      "outputs": [],
      "payable": false,
      "stateMutability": "nonpayable",
      "type": "function"
    }
  ],
  "bytecode": "0x60606040526000600d556000600e556000600f55600060105560006011556000601255600060135560006014556000601555341561003c57600080fd5b6125e98061004b6000396000f3006060604052600436106100ba576000357c0100000000000000000000000000000000000000000000000000000000900463ffffffff16806311da60b4146100bf57806326a9236d146100d45780632c046c4b146101005780633f1d7dc3146101235780634064a26a14610146578063560e2f6114610172578063676750211461019b5780636e3b9c11146101b0578063834b6395146101e95780638d9c0d821461020c578063f6326fb31461022f578063f8b2cb4f14610239575b600080fd5b34156100ca57600080fd5b6100d2610286565b005b34156100df57600080fd5b6100fe60048080359060200190919080359060200190919050506103af565b005b341561010b57600080fd5b61012160048080359060200190919050506103ec565b005b341561012e57600080fd5b6101446004808035906020019091905050610443565b005b341561015157600080fd5b61017060048080359060200190919080359060200190919050506104cd565b005b341561017d57600080fd5b61018561050a565b6040518082815260200191505060405180910390f35b34156101a657600080fd5b6101ae610514565b005b34156101bb57600080fd5b6101e7600480803573ffffffffffffffffffffffffffffffffffffffff1690602001909190505061058b565b005b34156101f457600080fd5b61020a60048080359060200190919050506105a4565b005b341561021757600080fd5b61022d60048080359060200190919050506105bb565b005b6102376105c5565b005b341561024457600080fd5b610270600480803573ffffffffffffffffffffffffffffffffffffffff169060200190919050506106af565b6040518082815260200191505060405180910390f35b60006102906106fa565b610298610a68565b600090505b6005805490508110156103ac576005818154811015156102b957fe5b906000526020600020900160009054906101000a900473ffffffffffffffffffffffffffffffffffffffff1673ffffffffffffffffffffffffffffffffffffffff166108fc60008060058581548110151561031057fe5b906000526020600020900160009054906101000a900473ffffffffffffffffffffffffffffffffffffffff1673ffffffffffffffffffffffffffffffffffffffff1673ffffffffffffffffffffffffffffffffffffffff168152602001908152602001600020600001549081150290604051600060405180830381858888f19350505050151561039f57600080fd5b808060010191505061029d565b50565b6103b83361129d565b156103c257600080fd5b6103cd3383836112f5565b6103d633611409565b6010600081548092919060010191905055505050565b80600260003373ffffffffffffffffffffffffffffffffffffffff1673ffffffffffffffffffffffffffffffffffffffff1681526020019081526020016000208190555080600f6000828254019250508190555050565b6000151561045033611797565b1515141561045d57600080fd5b6104663361129d565b15156104765761047533611800565b5b80600160003373ffffffffffffffffffffffffffffffffffffffff1673ffffffffffffffffffffffffffffffffffffffff1681526020019081526020016000208190555080600e6000828254019250508190555050565b6104d63361129d565b156104e057600080fd5b6104eb3383836118c0565b6104f4336119d4565b6011600081548092919060010191905055505050565b6000601454905090565b60006013549050600060135413801561052f57506000601154115b156105425761053d81611d62565b610588565b600060135412801561055657506000601054115b15610587576105867fffffffffffffffffffffffffffffffffffffffffffffffffffffffffffffffff8202612092565b5b5b50565b8073ffffffffffffffffffffffffffffffffffffffff16ff5b80601281905550601254600e540160138190555050565b8060158190555050565b60003490506105d333611797565b151561064c576105e333826123c2565b50600580548060010182816105f8919061256c565b9160005260206000209001600033909190916101000a81548173ffffffffffffffffffffffffffffffffffffffff021916908373ffffffffffffffffffffffffffffffffffffffff1602179055505061069c565b806000803373ffffffffffffffffffffffffffffffffffffffff1673ffffffffffffffffffffffffffffffffffffffff168152602001908152602001600020600001600082825401925050819055505b80600d6000828254019250508190555050565b60008060008373ffffffffffffffffffffffffffffffffffffffff1673ffffffffffffffffffffffffffffffffffffffff168152602001908152602001600020600001549050919050565b6000601254600f60008282540192505081905550600090505b600a80549050811015610a655760016000600a8381548110151561073357fe5b906000526020600020900160009054906101000a900473ffffffffffffffffffffffffffffffffffffffff1673ffffffffffffffffffffffffffffffffffffffff1673ffffffffffffffffffffffffffffffffffffffff1681526020019081526020016000205460026000600a848154811015156107ad57fe5b906000526020600020900160009054906101000a900473ffffffffffffffffffffffffffffffffffffffff1673ffffffffffffffffffffffffffffffffffffffff1673ffffffffffffffffffffffffffffffffffffffff1681526020019081526020016000205403600080600a8481548110151561082757fe5b906000526020600020900160009054906101000a900473ffffffffffffffffffffffffffffffffffffffff1673ffffffffffffffffffffffffffffffffffffffff1673ffffffffffffffffffffffffffffffffffffffff168152602001908152602001600020600201819055506000806000600a848154811015156108a857fe5b906000526020600020900160009054906101000a900473ffffffffffffffffffffffffffffffffffffffff1673ffffffffffffffffffffffffffffffffffffffff1673ffffffffffffffffffffffffffffffffffffffff1681526020019081526020016000206002015413156109ba57600c805480600101828161092c919061256c565b91600052602060002090016000600a8481548110151561094857fe5b906000526020600020900160009054906101000a900473ffffffffffffffffffffffffffffffffffffffff16909190916101000a81548173ffffffffffffffffffffffffffffffffffffffff021916908373ffffffffffffffffffffffffffffffffffffffff16021790555050610a58565b600b80548060010182816109ce919061256c565b91600052602060002090016000600a848154811015156109ea57fe5b906000526020600020900160009054906101000a900473ffffffffffffffffffffffffffffffffffffffff16909190916101000a81548173ffffffffffffffffffffffffffffffffffffffff021916908373ffffffffffffffffffffffffffffffffffffffff160217905550505b8080600101915050610713565b50565b600080600080600080600080945060009350600092506000915060009050600e54600f5401600e54811515610a9957fe5b05601454029450600096505b600b80549050871015610cb55760009550600080600b89815481101515610ac857fe5b906000526020600020900160009054906101000a900473ffffffffffffffffffffffffffffffffffffffff1673ffffffffffffffffffffffffffffffffffffffff1673ffffffffffffffffffffffffffffffffffffffff16815260200190815260200160002060020154850291506000821215610b65577fffffffffffffffffffffffffffffffffffffffffffffffffffffffffffffffff820291505b818301925060026000600b89815481101515610b7d57fe5b906000526020600020900160009054906101000a900473ffffffffffffffffffffffffffffffffffffffff1673ffffffffffffffffffffffffffffffffffffffff1673ffffffffffffffffffffffffffffffffffffffff168152602001908152602001600020546014540295506000861215610c19577fffffffffffffffffffffffffffffffffffffffffffffffffffffffffffffffff860295505b81601554870103600080600b8a815481101515610c3257fe5b906000526020600020900160009054906101000a900473ffffffffffffffffffffffffffffffffffffffff1673ffffffffffffffffffffffffffffffffffffffff1673ffffffffffffffffffffffffffffffffffffffff168152602001908152602001600020600001600082825403925050819055508680600101975050610aa5565b600f54600e540183811515610cc657fe5b059350600096505b600c80549050871015610ed95760009550600080600b89815481101515610cf157fe5b906000526020600020900160009054906101000a900473ffffffffffffffffffffffffffffffffffffffff1673ffffffffffffffffffffffffffffffffffffffff1673ffffffffffffffffffffffffffffffffffffffff16815260200190815260200160002060020154840290506000811215610d8e577fffffffffffffffffffffffffffffffffffffffffffffffffffffffffffffffff810290505b60026000600c89815481101515610da157fe5b906000526020600020900160009054906101000a900473ffffffffffffffffffffffffffffffffffffffff1673ffffffffffffffffffffffffffffffffffffffff1673ffffffffffffffffffffffffffffffffffffffff168152602001908152602001600020546014540295506000861215610e3d577fffffffffffffffffffffffffffffffffffffffffffffffffffffffffffffffff860295505b80601554870101600080600c8a815481101515610e5657fe5b906000526020600020900160009054906101000a900473ffffffffffffffffffffffffffffffffffffffff1673ffffffffffffffffffffffffffffffffffffffff1673ffffffffffffffffffffffffffffffffffffffff168152602001908152602001600020600001600082825403925050819055508680600101975050610cce565b600160165414156110be57600096505b6009805490508710156110b95760026000600989815481101515610f0957fe5b906000526020600020900160009054906101000a900473ffffffffffffffffffffffffffffffffffffffff1673ffffffffffffffffffffffffffffffffffffffff1673ffffffffffffffffffffffffffffffffffffffff168152602001908152602001600020546004600060098a815481101515610f8357fe5b906000526020600020900160009054906101000a900473ffffffffffffffffffffffffffffffffffffffff1673ffffffffffffffffffffffffffffffffffffffff1673ffffffffffffffffffffffffffffffffffffffff16815260200190815260200160002060020154029550600086121561101f577fffffffffffffffffffffffffffffffffffffffffffffffffffffffffffffffff860295505b601554860360008060098a81548110151561103657fe5b906000526020600020900160009054906101000a900473ffffffffffffffffffffffffffffffffffffffff1673ffffffffffffffffffffffffffffffffffffffff1673ffffffffffffffffffffffffffffffffffffffff168152602001908152602001600020600001600082825401925050819055508680600101975050610ee9565b611294565b600096505b60088054905087101561129357600260006008898154811015156110e357fe5b906000526020600020900160009054906101000a900473ffffffffffffffffffffffffffffffffffffffff1673ffffffffffffffffffffffffffffffffffffffff1673ffffffffffffffffffffffffffffffffffffffff168152602001908152602001600020546003600060088a81548110151561115d57fe5b906000526020600020900160009054906101000a900473ffffffffffffffffffffffffffffffffffffffff1673ffffffffffffffffffffffffffffffffffffffff1673ffffffffffffffffffffffffffffffffffffffff1681526020019081526020016000206002015402955060008612156111f9577fffffffffffffffffffffffffffffffffffffffffffffffffffffffffffffffff860295505b601554860160008060088a81548110151561121057fe5b906000526020600020900160009054906101000a900473ffffffffffffffffffffffffffffffffffffffff1673ffffffffffffffffffffffffffffffffffffffff1673ffffffffffffffffffffffffffffffffffffffff1681526020019081526020016000206000016000828254039250508190555086806001019750506110c3565b5b50505050505050565b60008060008373ffffffffffffffffffffffffffffffffffffffff1673ffffffffffffffffffffffffffffffffffffffff16815260200190815260200160002060010160009054906101000a900460ff169050919050565b82600360008573ffffffffffffffffffffffffffffffffffffffff1673ffffffffffffffffffffffffffffffffffffffff16815260200190815260200160002060000160006101000a81548173ffffffffffffffffffffffffffffffffffffffff021916908373ffffffffffffffffffffffffffffffffffffffff16021790555081600360008573ffffffffffffffffffffffffffffffffffffffff1673ffffffffffffffffffffffffffffffffffffffff1681526020019081526020016000206001018190555080600360008573ffffffffffffffffffffffffffffffffffffffff1673ffffffffffffffffffffffffffffffffffffffff16815260200190815260200160002060020181905550505050565b60008060006006805490509150600090506000601054141561148d5760068054806001018281611439919061256c565b9160005260206000209001600086909190916101000a81548173ffffffffffffffffffffffffffffffffffffffff021916908373ffffffffffffffffffffffffffffffffffffffff16021790555050611791565b601054820392505b8183101561172357600360006006858154811015156114b057fe5b906000526020600020900160009054906101000a900473ffffffffffffffffffffffffffffffffffffffff1673ffffffffffffffffffffffffffffffffffffffff1673ffffffffffffffffffffffffffffffffffffffff16815260200190815260200160002060020154600360008673ffffffffffffffffffffffffffffffffffffffff1673ffffffffffffffffffffffffffffffffffffffff1681526020019081526020016000206002015412801561156a5750600081145b15611678576001905060068054806001018281611587919061256c565b9160005260206000209001600086909190916101000a81548173ffffffffffffffffffffffffffffffffffffffff021916908373ffffffffffffffffffffffffffffffffffffffff16021790555050600680548060010182816115ea919061256c565b9160005260206000209001600060068681548110151561160657fe5b906000526020600020900160009054906101000a900473ffffffffffffffffffffffffffffffffffffffff16909190916101000a81548173ffffffffffffffffffffffffffffffffffffffff021916908373ffffffffffffffffffffffffffffffffffffffff16021790555050611716565b6006805480600101828161168c919061256c565b916000526020600020900160006006868154811015156116a857fe5b906000526020600020900160009054906101000a900473ffffffffffffffffffffffffffffffffffffffff16909190916101000a81548173ffffffffffffffffffffffffffffffffffffffff021916908373ffffffffffffffffffffffffffffffffffffffff160217905550505b8280600101935050611495565b60008114156117905760068054806001018281611740919061256c565b9160005260206000209001600086909190916101000a81548173ffffffffffffffffffffffffffffffffffffffff021916908373ffffffffffffffffffffffffffffffffffffffff160217905550505b5b50505050565b60008060008373ffffffffffffffffffffffffffffffffffffffff1673ffffffffffffffffffffffffffffffffffffffff16815260200190815260200160002060010160019054906101000a900460ff16156117f657600190506117fb565b600090505b919050565b60016000808373ffffffffffffffffffffffffffffffffffffffff1673ffffffffffffffffffffffffffffffffffffffff16815260200190815260200160002060010160006101000a81548160ff021916908315150217905550600a805480600101828161186e919061256c565b9160005260206000209001600083909190916101000a81548173ffffffffffffffffffffffffffffffffffffffff021916908373ffffffffffffffffffffffffffffffffffffffff1602179055505050565b82600460008573ffffffffffffffffffffffffffffffffffffffff1673ffffffffffffffffffffffffffffffffffffffff16815260200190815260200160002060000160006101000a81548173ffffffffffffffffffffffffffffffffffffffff021916908373ffffffffffffffffffffffffffffffffffffffff16021790555081600460008573ffffffffffffffffffffffffffffffffffffffff1673ffffffffffffffffffffffffffffffffffffffff1681526020019081526020016000206001018190555080600460008573ffffffffffffffffffffffffffffffffffffffff1673ffffffffffffffffffffffffffffffffffffffff16815260200190815260200160002060020181905550505050565b600080600060078054905091506000905060006011541415611a585760078054806001018281611a04919061256c565b9160005260206000209001600086909190916101000a81548173ffffffffffffffffffffffffffffffffffffffff021916908373ffffffffffffffffffffffffffffffffffffffff16021790555050611d5c565b601154820392505b81831015611cee5760046000600785815481101515611a7b57fe5b906000526020600020900160009054906101000a900473ffffffffffffffffffffffffffffffffffffffff1673ffffffffffffffffffffffffffffffffffffffff1673ffffffffffffffffffffffffffffffffffffffff16815260200190815260200160002060020154600460008673ffffffffffffffffffffffffffffffffffffffff1673ffffffffffffffffffffffffffffffffffffffff16815260200190815260200160002060020154128015611b355750600081145b15611c43576001905060078054806001018281611b52919061256c565b9160005260206000209001600086909190916101000a81548173ffffffffffffffffffffffffffffffffffffffff021916908373ffffffffffffffffffffffffffffffffffffffff1602179055505060078054806001018281611bb5919061256c565b91600052602060002090016000600786815481101515611bd157fe5b906000526020600020900160009054906101000a900473ffffffffffffffffffffffffffffffffffffffff16909190916101000a81548173ffffffffffffffffffffffffffffffffffffffff021916908373ffffffffffffffffffffffffffffffffffffffff16021790555050611ce1565b60078054806001018281611c57919061256c565b91600052602060002090016000600786815481101515611c7357fe5b906000526020600020900160009054906101000a900473ffffffffffffffffffffffffffffffffffffffff16909190916101000a81548173ffffffffffffffffffffffffffffffffffffffff021916908373ffffffffffffffffffffffffffffffffffffffff160217905550505b8280600101935050611a60565b6000811415611d5b5760078054806001018281611d0b919061256c565b9160005260206000209001600086909190916101000a81548173ffffffffffffffffffffffffffffffffffffffff021916908373ffffffffffffffffffffffffffffffffffffffff160217905550505b5b50505050565b6000806000809250600091506001601681905550600090505b601154811015612081578383600460006007856011546007805490500301815481101515611da557fe5b906000526020600020900160009054906101000a900473ffffffffffffffffffffffffffffffffffffffff1673ffffffffffffffffffffffffffffffffffffffff1673ffffffffffffffffffffffffffffffffffffffff16815260200190815260200160002060010154011315156120655760098054806001018281611e2b919061256c565b916000526020600020900160006007846011546007805490500301815481101515611e5257fe5b906000526020600020900160009054906101000a900473ffffffffffffffffffffffffffffffffffffffff16909190916101000a81548173ffffffffffffffffffffffffffffffffffffffff021916908373ffffffffffffffffffffffffffffffffffffffff16021790555050600460006007836011546007805490500301815481101515611edd57fe5b906000526020600020900160009054906101000a900473ffffffffffffffffffffffffffffffffffffffff1673ffffffffffffffffffffffffffffffffffffffff1673ffffffffffffffffffffffffffffffffffffffff1681526020019081526020016000206001015483019250600460006007836011546007805490500301815481101515611f6957fe5b906000526020600020900160009054906101000a900473ffffffffffffffffffffffffffffffffffffffff1673ffffffffffffffffffffffffffffffffffffffff1673ffffffffffffffffffffffffffffffffffffffff16815260200190815260200160002060020154600460006007846011546007805490500301815481101515611ff157fe5b906000526020600020900160009054906101000a900473ffffffffffffffffffffffffffffffffffffffff1673ffffffffffffffffffffffffffffffffffffffff1673ffffffffffffffffffffffffffffffffffffffff168152602001908152602001600020600101540282019150612074565b61206f8284612556565b61208c565b8080600101915050611d7b565b61208b8284612556565b5b50505050565b6000806000809250600091506000601681905550600090505b6010548110156123b15783836003600060068560105460068054905003018154811015156120d557fe5b906000526020600020900160009054906101000a900473ffffffffffffffffffffffffffffffffffffffff1673ffffffffffffffffffffffffffffffffffffffff1673ffffffffffffffffffffffffffffffffffffffff1681526020019081526020016000206001015401131515612395576008805480600101828161215b919061256c565b91600052602060002090016000600684601054600680549050030181548110151561218257fe5b906000526020600020900160009054906101000a900473ffffffffffffffffffffffffffffffffffffffff16909190916101000a81548173ffffffffffffffffffffffffffffffffffffffff021916908373ffffffffffffffffffffffffffffffffffffffff1602179055505060036000600683601054600680549050030181548110151561220d57fe5b906000526020600020900160009054906101000a900473ffffffffffffffffffffffffffffffffffffffff1673ffffffffffffffffffffffffffffffffffffffff1673ffffffffffffffffffffffffffffffffffffffff168152602001908152602001600020600101548301925060036000600683601054600680549050030181548110151561229957fe5b906000526020600020900160009054906101000a900473ffffffffffffffffffffffffffffffffffffffff1673ffffffffffffffffffffffffffffffffffffffff1673ffffffffffffffffffffffffffffffffffffffff1681526020019081526020016000206002015460036000600684601054600680549050030181548110151561232157fe5b906000526020600020900160009054906101000a900473ffffffffffffffffffffffffffffffffffffffff1673ffffffffffffffffffffffffffffffffffffffff1673ffffffffffffffffffffffffffffffffffffffff1681526020019081526020016000206001015402820191506123a4565b61239f8284612556565b6123bc565b80806001019150506120ab565b6123bb8284612556565b5b50505050565b6000816000808573ffffffffffffffffffffffffffffffffffffffff1673ffffffffffffffffffffffffffffffffffffffff1681526020019081526020016000206000018190555060008060008573ffffffffffffffffffffffffffffffffffffffff1673ffffffffffffffffffffffffffffffffffffffff16815260200190815260200160002060010160006101000a81548160ff02191690831515021790555060016000808573ffffffffffffffffffffffffffffffffffffffff1673ffffffffffffffffffffffffffffffffffffffff16815260200190815260200160002060010160016101000a81548160ff02191690831515021790555060008060008573ffffffffffffffffffffffffffffffffffffffff1673ffffffffffffffffffffffffffffffffffffffff1681526020019081526020016000206002018190555060016000808573ffffffffffffffffffffffffffffffffffffffff1673ffffffffffffffffffffffffffffffffffffffff168152602001908152602001600020600301819055506001905092915050565b808281151561256157fe5b056014819055505050565b815481835581811511612593578183600052602060002091820191016125929190612598565b5b505050565b6125ba91905b808211156125b657600081600090555060010161259e565b5090565b905600a165627a7a7230582072a48393a58fd0137bee95758b9327c5dfc91d56560aaec8e246454e698dc6ff0029",
  "source": "pragma solidity ^0.4.19;\n\ncontract VoltExchange {\n    \n    //****************************************************************\n    // Customer Info Struct *** Mostly Static\n    struct Customer {\n        uint customerBalance;\n        bool userStatus; // true for critical, false for noncritical\n        bool isCust;\n        int usageDiff;\n        uint historic;    // Value between 0 and 1. This would need to be someone from outside this contract so I just left it at 1.\n    }\n    \n    //****************************************************************\n    // Offered Demand Struct\n    struct OffDem {\n        address addr;\n        int dem;\n        int price;\n    }\n        \n    //****************************************************************\n    // Offered Generation Struct\n    struct OffGen {\n        address addr;\n        int gen;\n        int price;\n    }\n    \n    //****************************************************************\n    // Mappings\n    mapping(address => Customer) private customers;\n    \n    mapping(address => int) private EstUsageWh;\n    mapping(address => int) private ActUsageWh;\n    \n    mapping(address => OffDem) private offdemands;\n    mapping(address => OffGen) private offgenerations;\n    \n    \n    //****************************************************************\n    // Arrays\n    address[] private Customers;\n    \n    address[] private DemOffAddrs;\n    address[] private GenOffAddrs;\n    \n    address[] private AcceptedDemOff;\n    address[] private AcceptedGenOff;\n    \n    address[] private CriticalUsers;\n    \n    address[] private RewardAccounts;\n    address[] private PenaltyAccounts;\n    \n    //****************************************************************\n    //misc variables \n    uint totalfunds = 0;              // Total ether added to the contract\n    int totalEstUsage = 0;           // Total usage in wh from critical users\n    int totalActUsage = 0;\n    uint demandoffers = 0;            // Total demand offers from noncritical users\n    uint generationoffers = 0;        // Total generation offers from noncritical users\n    int netOpWhLosses = 0;\n    int netUsage = 0;\n    int MarketPrice = 0;\n    int UseCharge = 0;\n    \n    int genORdem;                     //Simple int to check if excess demand (0) or excess generation (1)\n    \n    //****************************************************************\n    // Creates new Customer object, default noncritical \n    function addCustomer(address addr, uint bal) private returns (bool success){     \n        customers[addr].customerBalance = bal;    \n        customers[addr].userStatus = false;\n        customers[addr].isCust = true;\n        customers[addr].usageDiff = 0;\n        customers[addr].historic = 1;\n        return true;\n    }\n    \n    //****************************************************************\n    // Creates new Offered Demand object\n    function addOffDem(address addr, int demand, int price) private{\n        offdemands[addr].addr = addr;\n        offdemands[addr].dem = demand;\n        offdemands[addr].price = price;\n    }\n    \n    //****************************************************************\n    // IMPORTANT! To save computation and gas DemOffAddrs is appended without deletion.\n    //            The list of current sorted offers is indexed from its length minus the demandoffers.\n    function sortDemoffers(address addr) private{\n        uint i;\n        uint len = DemOffAddrs.length;\n        int placed = 0;\n        if(demandoffers == 0){\n            DemOffAddrs.push(addr);\n        }\n        else{\n            for(i = len - demandoffers ; i < len; i++){\n                if(offdemands[addr].price < offdemands[DemOffAddrs[i]].price && placed == 0){\n                    placed = 1;\n                    DemOffAddrs.push(addr);\n                    DemOffAddrs.push(DemOffAddrs[i]);\n                }\n                else{\n                    DemOffAddrs.push(DemOffAddrs[i]);\n                }\n            }\n            if(placed == 0){\n                DemOffAddrs.push(addr);\n            }\n        }\n    }\n    \n    //****************************************************************\n    // Creates new Offered Generation object\n    function addOffGen(address addr, int generation, int price) private{\n        offgenerations[addr].addr = addr;\n        offgenerations[addr].gen = generation;\n        offgenerations[addr].price = price;\n    }\n    \n    //****************************************************************\n    // IMPORTANT! To save computation and gas GenOffAddrs is appended without deletion.\n    //            The list of current sorted offers is indexed from its length minus the generationoffers.\n    function sortGenoffers(address addr) private{\n        uint i;\n        uint len = GenOffAddrs.length;\n        int placed = 0;\n        if(generationoffers == 0){\n            GenOffAddrs.push(addr);\n        }\n        else{\n            for(i = len - generationoffers; i < len; i++){\n                if(offgenerations[addr].price < offgenerations[GenOffAddrs[i]].price && placed == 0){\n                    placed = 1;\n                    GenOffAddrs.push(addr);\n                    GenOffAddrs.push(GenOffAddrs[i]);\n                }\n                else{\n                    GenOffAddrs.push(GenOffAddrs[i]);\n                }\n            }\n            if(placed == 0){\n                GenOffAddrs.push(addr);\n            }\n        }\n    }\n    \n    //****************************************************************\n    // Updates the status of customer to Critical ****NONE REVERSABLE\n    function updateCrit(address addr) private {\n        customers[addr].userStatus = true;\n        CriticalUsers.push(addr);\n    }\n    \n    //****************************************************************\n    // Check the status of the customer\n    function isCritical(address addr) private constant returns (bool status){\n        return customers[addr].userStatus;\n    }\n    \n    //****************************************************************\n    // Check to see if customer exists\n    function isCustomer(address addr) private constant returns (bool customer){\n        if(customers[addr].isCust){\n            return true;\n        }\n        else{\n            return false;\n        }\n    }\n    \n    //****************************************************************\n    // Test to see check customer balance\n    function getBalance(address addr) public constant returns (uint bal){\n        return customers[addr].customerBalance;\n    }\n    //****************************************************************\n    // Test to see check Market Price\n    function getMP() public constant returns (int bal){\n        return MarketPrice;\n    }\n    \n    \n    //CUSTOMER FUNCTIONS\n    //****************************************************************\n    // Deposit function\n    function depositETH() public payable {                //Changed to deposit function from fallback\n        uint addedfunds = uint(msg.value);\n        if(!isCustomer(msg.sender)){                      //If the sender is not a custmer they get added to customers\n            addCustomer(msg.sender,addedfunds);           //along with their funds submitted\n            Customers.push(msg.sender);\n        }\n        else{\n            customers[msg.sender].customerBalance += addedfunds;   //If sender is customer the balance gets added to their current balance\n        }\n        totalfunds += addedfunds;                         //total funds added is kept tract of for now   \n    }\n    \n    //****************************************************************\n    //****************************************************************\n    // Process for negotiation phase\n    //****************************************************************\n    //****************************************************************\n    \n    //****************************************************************\n    // Critical users submit estimated demand or generation, the difference between the two being overall usage.\n    function estUsage(int Wh) public {\n        if(isCustomer(msg.sender) == false){              //If they are not a customer they have no balance and can not submit usage\n            revert();                                     //Revert to save the cost of gas\n        }\n        if(!isCritical(msg.sender)){                      //If they are not a current critical user they are updated to one.\n            updateCrit(msg.sender);                       //This can not be undone and may need to be changed to ask users in another function\n        }\n        EstUsageWh[msg.sender] = Wh;                   //A postive Wh is a demand and a negative Wh is a generation from critical user.\n        totalEstUsage += Wh;                           //Total usage is kept tract of for now\n    } \n    \n    //****************************************************************\n    // Non-critical users offer demand/price\n     function offerDemand(int demand, int price) public{\n        if(isCritical(msg.sender)){\n            revert();\n        }\n        addOffDem(msg.sender,demand,price);               //Struct created for demand offers\n        sortDemoffers(msg.sender);\n        demandoffers++;                                   //Running total of demand offers\n     \n     }    \n        \n    //****************************************************************\n    // Non-critical users offer generation/price    \n    function offerGeneration(int generation, int price) public{\n        if(isCritical(msg.sender)){\n            revert();\n        }\n        addOffGen(msg.sender,generation,price);           //Struct created for generation offers\n        sortGenoffers(msg.sender);                     //Array to hold open genreation offers    \n        generationoffers++;                               //Running total of demand offers\n    }    \n    \n    //****************************************************************\n    // Network operator uses this function to input Losses.                          //NEED TO MAKE ONLY OWNER \n    function recieveLossesEst(int losses) public {\n        netOpWhLosses = losses;\n        netUsage = totalEstUsage + netOpWhLosses;\n    }\n    \n    //****************************************************************\n    // Function to send Network Operator usage imbalance.\n    //function sendUsageImbalance() private returns (int imbal){\n    //    return netUsage;\n    //}\n    \n    //****************************************************************\n    // Function to balance out the excess demand/generation and set market price for critical users.\n    /*function defineMarketPrice() public{                                                              //ONLY OWNER\n        int acceptGenTotal = 0;\n        int genPrice = 0;\n        int acceptDemTotal = 0;\n        int demPrice = 0;\n\n        //Excess Demand, accept generation offers.\n        if(netUsage > 0) {\n            genORdem = 1;\n            while(netUsage > 0 && generationoffers > 0){\n                if((offgenerations[GenOffAddrs[GenOffAddrs.length - generationoffers]].gen + acceptGenTotal) <= netUsage){\n                    AcceptedGenOff.push(GenOffAddrs[GenOffAddrs.length - generationoffers]);\n                    acceptGenTotal += offgenerations[GenOffAddrs[GenOffAddrs.length - generationoffers]].gen;\n                     //Assuming the price is per Wh. It could be the total price for all Wh as well.\n                    genPrice += int(offgenerations[GenOffAddrs[GenOffAddrs.length - generationoffers]].gen) * int(offgenerations[GenOffAddrs[GenOffAddrs.length - generationoffers]].price);    \n                    netUsage -= offgenerations[GenOffAddrs[GenOffAddrs.length - generationoffers]].gen;\n                    generationoffers--;\n                }\n            }\n        }\n        \n        //Excess Generation, accept demand offers.\n        else {\n            genORdem = 0;\n            while(netUsage < 0 && demandoffers > 0){\n                if((offdemands[DemOffAddrs[DemOffAddrs.length - demandoffers]].dem + acceptDemTotal) <= (netUsage * -1)){\n                    AcceptedDemOff.push(DemOffAddrs[DemOffAddrs.length - demandoffers]);\n                    acceptDemTotal += offdemands[DemOffAddrs[DemOffAddrs.length - demandoffers]].dem;\n                    //Assuming the price is per Wh. It could be the total price for all Wh as well.\n                    demPrice += offdemands[DemOffAddrs[DemOffAddrs.length - demandoffers]].dem * offdemands[DemOffAddrs[DemOffAddrs.length - demandoffers]].price;\n                    netUsage += offdemands[DemOffAddrs[DemOffAddrs.length - demandoffers]].dem;\n                    demandoffers--;\n                }\n            }\n        }\n        \n        //sendUsageImbalance();               // Here when it is needed.\n        \n        //IMPORTANT!!\n        //Depending on how the price is defined this calculation will need to be changed as needed. As for now I am calcuationg Sum of the price in Ether and Sum of the electricity in Wh.\n        MarketPrice = (genPrice + demPrice) / (acceptGenTotal + acceptDemTotal);\n\n    }*/\n    \n    //****************************************************************\n    // Function to balance out the excess demand/generation and set market price for critical users.\n    function defineMP() public{\n        int usage = netUsage;\n        \n        if(netUsage > 0 && generationoffers > 0){\n            posUsage(usage);\n        }\n        \n        else if(netUsage < 0 && demandoffers > 0){\n            negUsage(usage * -1);\n        }\n    }\n    \n    //****************************************************************\n    function posUsage(int usage) private{\n        int acceptGenTotal = 0;\n        int genPrice = 0;\n        uint i;\n        genORdem = 1;\n            for(i = 0; i < generationoffers; i++){\n                if((offgenerations[GenOffAddrs[(GenOffAddrs.length - generationoffers) + i]].gen + acceptGenTotal) <= usage){\n                    AcceptedGenOff.push(GenOffAddrs[(GenOffAddrs.length - generationoffers) + i]);\n                    acceptGenTotal += offgenerations[GenOffAddrs[(GenOffAddrs.length - generationoffers) + i]].gen;\n                    //Assuming the price is per Wh. It could be the total price for all Wh as well.\n                    genPrice += int(offgenerations[GenOffAddrs[(GenOffAddrs.length - generationoffers) + i]].gen) * int(offgenerations[GenOffAddrs[(GenOffAddrs.length - generationoffers) + i]].price);    \n                }\n                else{\n                    return getMP(genPrice,acceptGenTotal);\n                }\n            }\n            return getMP(genPrice,acceptGenTotal);\n    }\n    \n    //****************************************************************\n    function negUsage(int usage) private{\n        int acceptDemTotal = 0;\n        int demPrice = 0;\n        uint i;\n        genORdem = 0;\n            for(i = 0; i < demandoffers; i++){\n                if((offdemands[DemOffAddrs[(DemOffAddrs.length - demandoffers) + i]].dem + acceptDemTotal) <= usage){\n                    AcceptedDemOff.push(DemOffAddrs[(DemOffAddrs.length - demandoffers) + i]);\n                    acceptDemTotal += offdemands[DemOffAddrs[(DemOffAddrs.length - demandoffers) + i]].dem;\n                    //Assuming the price is per Wh. It could be the total price for all Wh as well.\n                    demPrice += offdemands[DemOffAddrs[(DemOffAddrs.length - demandoffers) + i]].dem * offdemands[DemOffAddrs[(DemOffAddrs.length - demandoffers) + i]].price;\n                }\n                else{\n                    return getMP(demPrice,acceptDemTotal);\n                }\n            }\n            return getMP(demPrice,acceptDemTotal);\n    }\n    \n    //****************************************************************\n    function getMP(int price, int total) private {\n        MarketPrice = price / total;\n    }\n    //****************************************************************\n    //****************************************************************\n    // Process for settlement phase\n    //****************************************************************\n    //****************************************************************\n\n    //****************************************************************\n    //Function to gather actual usage.\n    function actUsage(int Wh) public {\n        ActUsageWh[msg.sender] = Wh;                   //A postive Wh is a demand and a negative Wh is a generation from all users.\n        totalActUsage += Wh;                           //Total usage is kept tract of for now\n    }\n    \n    //****************************************************************\n    //Function to calculate usage difference between estimated and actual usage.\n    function calcDiffUsage() private {\n        totalActUsage += netOpWhLosses;\n        \n        for(uint i = 0; i < CriticalUsers.length; i++){\n            customers[CriticalUsers[i]].usageDiff = ActUsageWh[CriticalUsers[i]] - EstUsageWh[CriticalUsers[i]];\n            if(customers[CriticalUsers[i]].usageDiff > 0){\n                PenaltyAccounts.push(CriticalUsers[i]);\n            }\n            else{\n                RewardAccounts.push(CriticalUsers[i]);\n            }\n        }\n    }\n    \n    //****************************************************************\n    //Function for the Network Operator to set Use of System Charge.\n    function  setUseCharge(int amount) public{                                                          //ONLY OWNER\n        UseCharge = amount;    \n    } \n    \n    //****************************************************************\n    //Function to calculate reward/penalty.\n    function rewardPenalty() private {\n        uint i;\n        int payment;\n        \n        int reward = 0;\n        int penalty = 0;\n        \n        int totalReward = 0;\n        \n        int rwdamt = 0;\n        int penamt = 0;\n        reward = MarketPrice * (totalEstUsage / (totalActUsage + totalEstUsage));\n        \n        for(i = 0; i < RewardAccounts.length; i++) {\n            payment = 0;\n            rwdamt = reward * customers[RewardAccounts[i]].usageDiff;\n            if(rwdamt < 0){\n                rwdamt = rwdamt * -1;\n            }\n            totalReward += rwdamt;\n            \n            payment = MarketPrice * ActUsageWh[RewardAccounts[i]];\n            if(payment < 0){\n                payment = payment * -1;\n            }\n        \n            customers[RewardAccounts[i]].customerBalance -= uint((payment + UseCharge - rwdamt));\n        }\n        \n        penalty = totalReward / (totalEstUsage + totalActUsage);\n        \n        for(i = 0; i < PenaltyAccounts.length; i++) {\n            payment = 0;\n            penamt = penalty * customers[RewardAccounts[i]].usageDiff;\n            if(penamt < 0){\n                penamt = penamt * -1;\n            }\n            payment = MarketPrice * ActUsageWh[PenaltyAccounts[i]];\n            if(payment < 0){\n                payment = payment * -1;\n            }\n            \n            customers[PenaltyAccounts[i]].customerBalance -= uint((payment + UseCharge + penamt));\n        }\n        \n        if(genORdem == 1){\n            for(i = 0; i < AcceptedGenOff.length; i++){\n                payment = offgenerations[AcceptedGenOff[i]].price * ActUsageWh[AcceptedGenOff[i]];\n                if(payment < 0){\n                    payment = payment * -1;\n                }\n                customers[AcceptedGenOff[i]].customerBalance += uint(payment - UseCharge);\n            }\n        }\n        else{\n            for(i = 0; i < AcceptedDemOff.length; i++){\n                payment = offdemands[AcceptedDemOff[i]].price * ActUsageWh[AcceptedDemOff[i]];\n                if(payment < 0){\n                    payment = payment * -1;\n                }\n                customers[AcceptedDemOff[i]].customerBalance -= uint(payment + UseCharge); \n            }\n        }\n    }\n    \n    //****************************************************************\n    function settle() public{                                                       //ONLY OWNER\n        uint i;\n        calcDiffUsage();\n        rewardPenalty();\n        for(i = 0; i < Customers.length; i++){\n            Customers[i].transfer(customers[Customers[i]].customerBalance);\n        }\n        \n    }\n    \n    //****************************************************************\n    //Kills the contract and returns all ether to address                           //ONLY OWNER\n    //IMPORTANT Very bad for real contract.  Further steps needed in future!!!!\n    function timeToDie(address addr) public{\n      selfdestruct(addr);\n  }\n} \n",
  "sourcePath": "/home/pi/Documents/402Project/voltchain/contracts/VoltExchange.sol",
  "compiler": {
    "name": "solc",
    "version": "0.4.19+commit.c4cbbb05.Emscripten.clang"
  },
  "schemaVersion": "2.0.0",
  "updatedAt": "2018-04-20T12:51:50.286Z"
}