{
  "contractName": "VoltExchange",
  "abi": [
    {
      "constant": true,
      "inputs": [
        {
          "name": "addr",
          "type": "address"
        }
      ],
      "name": "getBalance",
      "outputs": [
        {
          "name": "bal",
          "type": "uint256"
        }
      ],
      "payable": false,
      "stateMutability": "view",
      "type": "function"
    },
    {
      "constant": false,
      "inputs": [],
      "name": "depositETH",
      "outputs": [],
      "payable": true,
      "stateMutability": "payable",
      "type": "function"
    },
    {
      "constant": false,
      "inputs": [
        {
          "name": "Wh",
          "type": "int256"
        }
      ],
      "name": "estUsage",
      "outputs": [],
      "payable": false,
      "stateMutability": "nonpayable",
      "type": "function"
    },
    {
      "constant": false,
      "inputs": [
        {
          "name": "demand",
          "type": "int256"
        },
        {
          "name": "price",
          "type": "int256"
        }
      ],
      "name": "offerDemand",
      "outputs": [],
      "payable": false,
      "stateMutability": "nonpayable",
      "type": "function"
    },
    {
      "constant": false,
      "inputs": [
        {
          "name": "generation",
          "type": "int256"
        },
        {
          "name": "price",
          "type": "int256"
        }
      ],
      "name": "offerGeneration",
      "outputs": [],
      "payable": false,
      "stateMutability": "nonpayable",
      "type": "function"
    },
    {
      "constant": false,
      "inputs": [
        {
          "name": "losses",
          "type": "int256"
        }
      ],
      "name": "recieveLossesEst",
      "outputs": [],
      "payable": false,
      "stateMutability": "nonpayable",
      "type": "function"
    },
    {
      "constant": false,
      "inputs": [],
      "name": "defineMP",
      "outputs": [],
      "payable": false,
      "stateMutability": "nonpayable",
      "type": "function"
    },
    {
      "constant": true,
      "inputs": [],
      "name": "getMP",
      "outputs": [
        {
          "name": "bal",
          "type": "int256"
        }
      ],
      "payable": false,
      "stateMutability": "view",
      "type": "function"
    },
    {
      "constant": false,
      "inputs": [
        {
          "name": "Wh",
          "type": "int256"
        }
      ],
      "name": "actUsage",
      "outputs": [],
      "payable": false,
      "stateMutability": "nonpayable",
      "type": "function"
    },
    {
      "constant": false,
      "inputs": [
        {
          "name": "amount",
          "type": "int256"
        }
      ],
      "name": "setUseCharge",
      "outputs": [],
      "payable": false,
      "stateMutability": "nonpayable",
      "type": "function"
    },
    {
      "constant": false,
      "inputs": [],
      "name": "settle",
      "outputs": [],
      "payable": false,
      "stateMutability": "nonpayable",
      "type": "function"
    },
    {
      "constant": false,
      "inputs": [
        {
          "name": "addr",
          "type": "address"
        }
      ],
      "name": "timeToDie",
      "outputs": [],
      "payable": false,
      "stateMutability": "nonpayable",
      "type": "function"
    }
  ],
  "bytecode": "0x60806040526000600d556000600e556000600f5560006010556000601155600060125560006013556000601455600060155534801561003d57600080fd5b506125ff8061004d6000396000f3006080604052600436106100ba576000357c0100000000000000000000000000000000000000000000000000000000900463ffffffff16806311da60b4146100bf57806326a9236d146100d65780632c046c4b1461010d5780633f1d7dc31461013a5780634064a26a14610167578063560e2f611461019e57806367675021146101c95780636e3b9c11146101e0578063834b6395146102235780638d9c0d8214610250578063f6326fb31461027d578063f8b2cb4f14610287575b600080fd5b3480156100cb57600080fd5b506100d46102de565b005b3480156100e257600080fd5b5061010b600480360381019080803590602001909291908035906020019092919050505061040c565b005b34801561011957600080fd5b5061013860048036038101908080359060200190929190505050610449565b005b34801561014657600080fd5b50610165600480360381019080803590602001909291905050506104a0565b005b34801561017357600080fd5b5061019c600480360381019080803590602001909291908035906020019092919050505061052a565b005b3480156101aa57600080fd5b506101b3610567565b6040518082815260200191505060405180910390f35b3480156101d557600080fd5b506101de610571565b005b3480156101ec57600080fd5b50610221600480360381019080803573ffffffffffffffffffffffffffffffffffffffff1690602001909291905050506105e8565b005b34801561022f57600080fd5b5061024e60048036038101908080359060200190929190505050610601565b005b34801561025c57600080fd5b5061027b60048036038101908080359060200190929190505050610618565b005b610285610622565b005b34801561029357600080fd5b506102c8600480360381019080803573ffffffffffffffffffffffffffffffffffffffff16906020019092919050505061070f565b6040518082815260200191505060405180910390f35b60006102e861075a565b6102f0610ac8565b600090505b6005805490508110156104095760058181548110151561031157fe5b9060005260206000200160009054906101000a900473ffffffffffffffffffffffffffffffffffffffff1673ffffffffffffffffffffffffffffffffffffffff166108fc60008060058581548110151561036757fe5b9060005260206000200160009054906101000a900473ffffffffffffffffffffffffffffffffffffffff1673ffffffffffffffffffffffffffffffffffffffff1673ffffffffffffffffffffffffffffffffffffffff168152602001908152602001600020600001549081150290604051600060405180830381858888f193505050501580156103fb573d6000803e3d6000fd5b5080806001019150506102f5565b50565b610415336112f1565b1561041f57600080fd5b61042a338383611349565b6104333361145d565b6010600081548092919060010191905055505050565b80600260003373ffffffffffffffffffffffffffffffffffffffff1673ffffffffffffffffffffffffffffffffffffffff1681526020019081526020016000208190555080600f6000828254019250508190555050565b600015156104ad336117f5565b151514156104ba57600080fd5b6104c3336112f1565b15156104d3576104d23361185e565b5b80600160003373ffffffffffffffffffffffffffffffffffffffff1673ffffffffffffffffffffffffffffffffffffffff1681526020019081526020016000208190555080600e6000828254019250508190555050565b610533336112f1565b1561053d57600080fd5b610548338383611921565b61055133611a35565b6011600081548092919060010191905055505050565b6000601454905090565b60006013549050600060135413801561058c57506000601154115b1561059f5761059a81611dcd565b6105e5565b60006013541280156105b357506000601054115b156105e4576105e37fffffffffffffffffffffffffffffffffffffffffffffffffffffffffffffffff82026120fb565b5b5b50565b8073ffffffffffffffffffffffffffffffffffffffff16ff5b80601281905550601254600e540160138190555050565b8060158190555050565b6000349050610630336117f5565b15156106ac576106403382612429565b5060053390806001815401808255809150509060018203906000526020600020016000909192909190916101000a81548173ffffffffffffffffffffffffffffffffffffffff021916908373ffffffffffffffffffffffffffffffffffffffff160217905550506106fc565b806000803373ffffffffffffffffffffffffffffffffffffffff1673ffffffffffffffffffffffffffffffffffffffff168152602001908152602001600020600001600082825401925050819055505b80600d6000828254019250508190555050565b60008060008373ffffffffffffffffffffffffffffffffffffffff1673ffffffffffffffffffffffffffffffffffffffff168152602001908152602001600020600001549050919050565b6000601254600f60008282540192505081905550600090505b600a80549050811015610ac55760016000600a8381548110151561079357fe5b9060005260206000200160009054906101000a900473ffffffffffffffffffffffffffffffffffffffff1673ffffffffffffffffffffffffffffffffffffffff1673ffffffffffffffffffffffffffffffffffffffff1681526020019081526020016000205460026000600a8481548110151561080c57fe5b9060005260206000200160009054906101000a900473ffffffffffffffffffffffffffffffffffffffff1673ffffffffffffffffffffffffffffffffffffffff1673ffffffffffffffffffffffffffffffffffffffff1681526020019081526020016000205403600080600a8481548110151561088557fe5b9060005260206000200160009054906101000a900473ffffffffffffffffffffffffffffffffffffffff1673ffffffffffffffffffffffffffffffffffffffff1673ffffffffffffffffffffffffffffffffffffffff168152602001908152602001600020600201819055506000806000600a8481548110151561090557fe5b9060005260206000200160009054906101000a900473ffffffffffffffffffffffffffffffffffffffff1673ffffffffffffffffffffffffffffffffffffffff1673ffffffffffffffffffffffffffffffffffffffff168152602001908152602001600020600201541315610a1857600c600a8281548110151561098557fe5b9060005260206000200160009054906101000a900473ffffffffffffffffffffffffffffffffffffffff1690806001815401808255809150509060018203906000526020600020016000909192909190916101000a81548173ffffffffffffffffffffffffffffffffffffffff021916908373ffffffffffffffffffffffffffffffffffffffff16021790555050610ab8565b600b600a82815481101515610a2957fe5b9060005260206000200160009054906101000a900473ffffffffffffffffffffffffffffffffffffffff1690806001815401808255809150509060018203906000526020600020016000909192909190916101000a81548173ffffffffffffffffffffffffffffffffffffffff021916908373ffffffffffffffffffffffffffffffffffffffff160217905550505b8080600101915050610773565b50565b600080600080600080600080945060009350600092506000915060009050600e54600f5401600e54811515610af957fe5b05601454029450600096505b600b80549050871015610d125760009550600080600b89815481101515610b2857fe5b9060005260206000200160009054906101000a900473ffffffffffffffffffffffffffffffffffffffff1673ffffffffffffffffffffffffffffffffffffffff1673ffffffffffffffffffffffffffffffffffffffff16815260200190815260200160002060020154850291506000821215610bc4577fffffffffffffffffffffffffffffffffffffffffffffffffffffffffffffffff820291505b818301925060026000600b89815481101515610bdc57fe5b9060005260206000200160009054906101000a900473ffffffffffffffffffffffffffffffffffffffff1673ffffffffffffffffffffffffffffffffffffffff1673ffffffffffffffffffffffffffffffffffffffff168152602001908152602001600020546014540295506000861215610c77577fffffffffffffffffffffffffffffffffffffffffffffffffffffffffffffffff860295505b81601554870103600080600b8a815481101515610c9057fe5b9060005260206000200160009054906101000a900473ffffffffffffffffffffffffffffffffffffffff1673ffffffffffffffffffffffffffffffffffffffff1673ffffffffffffffffffffffffffffffffffffffff168152602001908152602001600020600001600082825403925050819055508680600101975050610b05565b600f54600e540183811515610d2357fe5b059350600096505b600c80549050871015610f335760009550600080600b89815481101515610d4e57fe5b9060005260206000200160009054906101000a900473ffffffffffffffffffffffffffffffffffffffff1673ffffffffffffffffffffffffffffffffffffffff1673ffffffffffffffffffffffffffffffffffffffff16815260200190815260200160002060020154840290506000811215610dea577fffffffffffffffffffffffffffffffffffffffffffffffffffffffffffffffff810290505b60026000600c89815481101515610dfd57fe5b9060005260206000200160009054906101000a900473ffffffffffffffffffffffffffffffffffffffff1673ffffffffffffffffffffffffffffffffffffffff1673ffffffffffffffffffffffffffffffffffffffff168152602001908152602001600020546014540295506000861215610e98577fffffffffffffffffffffffffffffffffffffffffffffffffffffffffffffffff860295505b80601554870101600080600c8a815481101515610eb157fe5b9060005260206000200160009054906101000a900473ffffffffffffffffffffffffffffffffffffffff1673ffffffffffffffffffffffffffffffffffffffff1673ffffffffffffffffffffffffffffffffffffffff168152602001908152602001600020600001600082825403925050819055508680600101975050610d2b565b6001601654141561111557600096505b6009805490508710156111105760026000600989815481101515610f6357fe5b9060005260206000200160009054906101000a900473ffffffffffffffffffffffffffffffffffffffff1673ffffffffffffffffffffffffffffffffffffffff1673ffffffffffffffffffffffffffffffffffffffff168152602001908152602001600020546004600060098a815481101515610fdc57fe5b9060005260206000200160009054906101000a900473ffffffffffffffffffffffffffffffffffffffff1673ffffffffffffffffffffffffffffffffffffffff1673ffffffffffffffffffffffffffffffffffffffff168152602001908152602001600020600201540295506000861215611077577fffffffffffffffffffffffffffffffffffffffffffffffffffffffffffffffff860295505b601554860360008060098a81548110151561108e57fe5b9060005260206000200160009054906101000a900473ffffffffffffffffffffffffffffffffffffffff1673ffffffffffffffffffffffffffffffffffffffff1673ffffffffffffffffffffffffffffffffffffffff168152602001908152602001600020600001600082825401925050819055508680600101975050610f43565b6112e8565b600096505b6008805490508710156112e7576002600060088981548110151561113a57fe5b9060005260206000200160009054906101000a900473ffffffffffffffffffffffffffffffffffffffff1673ffffffffffffffffffffffffffffffffffffffff1673ffffffffffffffffffffffffffffffffffffffff168152602001908152602001600020546003600060088a8154811015156111b357fe5b9060005260206000200160009054906101000a900473ffffffffffffffffffffffffffffffffffffffff1673ffffffffffffffffffffffffffffffffffffffff1673ffffffffffffffffffffffffffffffffffffffff16815260200190815260200160002060020154029550600086121561124e577fffffffffffffffffffffffffffffffffffffffffffffffffffffffffffffffff860295505b601554860160008060088a81548110151561126557fe5b9060005260206000200160009054906101000a900473ffffffffffffffffffffffffffffffffffffffff1673ffffffffffffffffffffffffffffffffffffffff1673ffffffffffffffffffffffffffffffffffffffff16815260200190815260200160002060000160008282540392505081905550868060010197505061111a565b5b50505050505050565b60008060008373ffffffffffffffffffffffffffffffffffffffff1673ffffffffffffffffffffffffffffffffffffffff16815260200190815260200160002060010160009054906101000a900460ff169050919050565b82600360008573ffffffffffffffffffffffffffffffffffffffff1673ffffffffffffffffffffffffffffffffffffffff16815260200190815260200160002060000160006101000a81548173ffffffffffffffffffffffffffffffffffffffff021916908373ffffffffffffffffffffffffffffffffffffffff16021790555081600360008573ffffffffffffffffffffffffffffffffffffffff1673ffffffffffffffffffffffffffffffffffffffff1681526020019081526020016000206001018190555080600360008573ffffffffffffffffffffffffffffffffffffffff1673ffffffffffffffffffffffffffffffffffffffff16815260200190815260200160002060020181905550505050565b6000806000600680549050915060009050600060105414156114e45760068490806001815401808255809150509060018203906000526020600020016000909192909190916101000a81548173ffffffffffffffffffffffffffffffffffffffff021916908373ffffffffffffffffffffffffffffffffffffffff160217905550506117ef565b601054820392505b8183101561177e576003600060068581548110151561150757fe5b9060005260206000200160009054906101000a900473ffffffffffffffffffffffffffffffffffffffff1673ffffffffffffffffffffffffffffffffffffffff1673ffffffffffffffffffffffffffffffffffffffff16815260200190815260200160002060020154600360008673ffffffffffffffffffffffffffffffffffffffff1673ffffffffffffffffffffffffffffffffffffffff168152602001908152602001600020600201541280156115c05750600081145b156116d2576001905060068490806001815401808255809150509060018203906000526020600020016000909192909190916101000a81548173ffffffffffffffffffffffffffffffffffffffff021916908373ffffffffffffffffffffffffffffffffffffffff160217905550506006808481548110151561163f57fe5b9060005260206000200160009054906101000a900473ffffffffffffffffffffffffffffffffffffffff1690806001815401808255809150509060018203906000526020600020016000909192909190916101000a81548173ffffffffffffffffffffffffffffffffffffffff021916908373ffffffffffffffffffffffffffffffffffffffff16021790555050611771565b600680848154811015156116e257fe5b9060005260206000200160009054906101000a900473ffffffffffffffffffffffffffffffffffffffff1690806001815401808255809150509060018203906000526020600020016000909192909190916101000a81548173ffffffffffffffffffffffffffffffffffffffff021916908373ffffffffffffffffffffffffffffffffffffffff160217905550505b82806001019350506114ec565b60008114156117ee5760068490806001815401808255809150509060018203906000526020600020016000909192909190916101000a81548173ffffffffffffffffffffffffffffffffffffffff021916908373ffffffffffffffffffffffffffffffffffffffff160217905550505b5b50505050565b60008060008373ffffffffffffffffffffffffffffffffffffffff1673ffffffffffffffffffffffffffffffffffffffff16815260200190815260200160002060010160019054906101000a900460ff16156118545760019050611859565b600090505b919050565b60016000808373ffffffffffffffffffffffffffffffffffffffff1673ffffffffffffffffffffffffffffffffffffffff16815260200190815260200160002060010160006101000a81548160ff021916908315150217905550600a8190806001815401808255809150509060018203906000526020600020016000909192909190916101000a81548173ffffffffffffffffffffffffffffffffffffffff021916908373ffffffffffffffffffffffffffffffffffffffff1602179055505050565b82600460008573ffffffffffffffffffffffffffffffffffffffff1673ffffffffffffffffffffffffffffffffffffffff16815260200190815260200160002060000160006101000a81548173ffffffffffffffffffffffffffffffffffffffff021916908373ffffffffffffffffffffffffffffffffffffffff16021790555081600460008573ffffffffffffffffffffffffffffffffffffffff1673ffffffffffffffffffffffffffffffffffffffff1681526020019081526020016000206001018190555080600460008573ffffffffffffffffffffffffffffffffffffffff1673ffffffffffffffffffffffffffffffffffffffff16815260200190815260200160002060020181905550505050565b600080600060078054905091506000905060006011541415611abc5760078490806001815401808255809150509060018203906000526020600020016000909192909190916101000a81548173ffffffffffffffffffffffffffffffffffffffff021916908373ffffffffffffffffffffffffffffffffffffffff16021790555050611dc7565b601154820392505b81831015611d565760046000600785815481101515611adf57fe5b9060005260206000200160009054906101000a900473ffffffffffffffffffffffffffffffffffffffff1673ffffffffffffffffffffffffffffffffffffffff1673ffffffffffffffffffffffffffffffffffffffff16815260200190815260200160002060020154600460008673ffffffffffffffffffffffffffffffffffffffff1673ffffffffffffffffffffffffffffffffffffffff16815260200190815260200160002060020154128015611b985750600081145b15611caa576001905060078490806001815401808255809150509060018203906000526020600020016000909192909190916101000a81548173ffffffffffffffffffffffffffffffffffffffff021916908373ffffffffffffffffffffffffffffffffffffffff1602179055505060078084815481101515611c1757fe5b9060005260206000200160009054906101000a900473ffffffffffffffffffffffffffffffffffffffff1690806001815401808255809150509060018203906000526020600020016000909192909190916101000a81548173ffffffffffffffffffffffffffffffffffffffff021916908373ffffffffffffffffffffffffffffffffffffffff16021790555050611d49565b60078084815481101515611cba57fe5b9060005260206000200160009054906101000a900473ffffffffffffffffffffffffffffffffffffffff1690806001815401808255809150509060018203906000526020600020016000909192909190916101000a81548173ffffffffffffffffffffffffffffffffffffffff021916908373ffffffffffffffffffffffffffffffffffffffff160217905550505b8280600101935050611ac4565b6000811415611dc65760078490806001815401808255809150509060018203906000526020600020016000909192909190916101000a81548173ffffffffffffffffffffffffffffffffffffffff021916908373ffffffffffffffffffffffffffffffffffffffff160217905550505b5b50505050565b6000806000809250600091506001601681905550600090505b6011548110156120ea578383600460006007856011546007805490500301815481101515611e1057fe5b9060005260206000200160009054906101000a900473ffffffffffffffffffffffffffffffffffffffff1673ffffffffffffffffffffffffffffffffffffffff1673ffffffffffffffffffffffffffffffffffffffff16815260200190815260200160002060010154011315156120ce5760096007826011546007805490500301815481101515611e9d57fe5b9060005260206000200160009054906101000a900473ffffffffffffffffffffffffffffffffffffffff1690806001815401808255809150509060018203906000526020600020016000909192909190916101000a81548173ffffffffffffffffffffffffffffffffffffffff021916908373ffffffffffffffffffffffffffffffffffffffff16021790555050600460006007836011546007805490500301815481101515611f4957fe5b9060005260206000200160009054906101000a900473ffffffffffffffffffffffffffffffffffffffff1673ffffffffffffffffffffffffffffffffffffffff1673ffffffffffffffffffffffffffffffffffffffff1681526020019081526020016000206001015483019250600460006007836011546007805490500301815481101515611fd457fe5b9060005260206000200160009054906101000a900473ffffffffffffffffffffffffffffffffffffffff1673ffffffffffffffffffffffffffffffffffffffff1673ffffffffffffffffffffffffffffffffffffffff1681526020019081526020016000206002015460046000600784601154600780549050030181548110151561205b57fe5b9060005260206000200160009054906101000a900473ffffffffffffffffffffffffffffffffffffffff1673ffffffffffffffffffffffffffffffffffffffff1673ffffffffffffffffffffffffffffffffffffffff1681526020019081526020016000206001015402820191506120dd565b6120d882846125bd565b6120f5565b8080600101915050611de6565b6120f482846125bd565b5b50505050565b6000806000809250600091506000601681905550600090505b60105481101561241857838360036000600685601054600680549050030181548110151561213e57fe5b9060005260206000200160009054906101000a900473ffffffffffffffffffffffffffffffffffffffff1673ffffffffffffffffffffffffffffffffffffffff1673ffffffffffffffffffffffffffffffffffffffff16815260200190815260200160002060010154011315156123fc57600860068260105460068054905003018154811015156121cb57fe5b9060005260206000200160009054906101000a900473ffffffffffffffffffffffffffffffffffffffff1690806001815401808255809150509060018203906000526020600020016000909192909190916101000a81548173ffffffffffffffffffffffffffffffffffffffff021916908373ffffffffffffffffffffffffffffffffffffffff1602179055505060036000600683601054600680549050030181548110151561227757fe5b9060005260206000200160009054906101000a900473ffffffffffffffffffffffffffffffffffffffff1673ffffffffffffffffffffffffffffffffffffffff1673ffffffffffffffffffffffffffffffffffffffff168152602001908152602001600020600101548301925060036000600683601054600680549050030181548110151561230257fe5b9060005260206000200160009054906101000a900473ffffffffffffffffffffffffffffffffffffffff1673ffffffffffffffffffffffffffffffffffffffff1673ffffffffffffffffffffffffffffffffffffffff1681526020019081526020016000206002015460036000600684601054600680549050030181548110151561238957fe5b9060005260206000200160009054906101000a900473ffffffffffffffffffffffffffffffffffffffff1673ffffffffffffffffffffffffffffffffffffffff1673ffffffffffffffffffffffffffffffffffffffff16815260200190815260200160002060010154028201915061240b565b61240682846125bd565b612423565b8080600101915050612114565b61242282846125bd565b5b50505050565b6000816000808573ffffffffffffffffffffffffffffffffffffffff1673ffffffffffffffffffffffffffffffffffffffff1681526020019081526020016000206000018190555060008060008573ffffffffffffffffffffffffffffffffffffffff1673ffffffffffffffffffffffffffffffffffffffff16815260200190815260200160002060010160006101000a81548160ff02191690831515021790555060016000808573ffffffffffffffffffffffffffffffffffffffff1673ffffffffffffffffffffffffffffffffffffffff16815260200190815260200160002060010160016101000a81548160ff02191690831515021790555060008060008573ffffffffffffffffffffffffffffffffffffffff1673ffffffffffffffffffffffffffffffffffffffff1681526020019081526020016000206002018190555060016000808573ffffffffffffffffffffffffffffffffffffffff1673ffffffffffffffffffffffffffffffffffffffff168152602001908152602001600020600301819055506001905092915050565b80828115156125c857fe5b0560148190555050505600a165627a7a7230582006656eddc761479d9792e6928e936d5c078e0dcc3041925598fdf89afaa455e30029",
  "source": "pragma solidity ^0.4.19;\n\ncontract VoltExchange {\n    \n    //****************************************************************\n    // Customer Info Struct *** Mostly Static\n    struct Customer {\n        uint customerBalance;\n        bool userStatus; // true for critical, false for noncritical\n        bool isCust;\n        int usageDiff;\n        uint historic;    // Value between 0 and 1. This would need to be someone from outside this contract so I just left it at 1.\n    }\n    \n    //****************************************************************\n    // Offered Demand Struct\n    struct OffDem {\n        address addr;\n        int dem;\n        int price;\n    }\n        \n    //****************************************************************\n    // Offered Generation Struct\n    struct OffGen {\n        address addr;\n        int gen;\n        int price;\n    }\n    \n    //****************************************************************\n    // Mappings\n    mapping(address => Customer) private customers;\n    \n    mapping(address => int) private EstUsageWh;\n    mapping(address => int) private ActUsageWh;\n    \n    mapping(address => OffDem) private offdemands;\n    mapping(address => OffGen) private offgenerations;\n    \n    \n    //****************************************************************\n    // Arrays\n    address[] private Customers;\n    \n    address[] private DemOffAddrs;\n    address[] private GenOffAddrs;\n    \n    address[] private AcceptedDemOff;\n    address[] private AcceptedGenOff;\n    \n    address[] private CriticalUsers;\n    \n    address[] private RewardAccounts;\n    address[] private PenaltyAccounts;\n    \n    //****************************************************************\n    //misc variables \n    uint totalfunds = 0;              // Total ether added to the contract\n    int totalEstUsage = 0;           // Total usage in wh from critical users\n    int totalActUsage = 0;\n    uint demandoffers = 0;            // Total demand offers from noncritical users\n    uint generationoffers = 0;        // Total generation offers from noncritical users\n    int netOpWhLosses = 0;\n    int netUsage = 0;\n    int MarketPrice = 0;\n    int UseCharge = 0;\n    \n    int genORdem;                     //Simple int to check if excess demand (0) or excess generation (1)\n    \n    //****************************************************************\n    // Creates new Customer object, default noncritical \n    function addCustomer(address addr, uint bal) private returns (bool success){     \n        customers[addr].customerBalance = bal;    \n        customers[addr].userStatus = false;\n        customers[addr].isCust = true;\n        customers[addr].usageDiff = 0;\n        customers[addr].historic = 1;\n        return true;\n    }\n    \n    //****************************************************************\n    // Creates new Offered Demand object\n    function addOffDem(address addr, int demand, int price) private{\n        offdemands[addr].addr = addr;\n        offdemands[addr].dem = demand;\n        offdemands[addr].price = price;\n    }\n    \n    //****************************************************************\n    // IMPORTANT! To save computation and gas DemOffAddrs is appended without deletion.\n    //            The list of current sorted offers is indexed from its length minus the demandoffers.\n    function sortDemoffers(address addr) private{\n        uint i;\n        uint len = DemOffAddrs.length;\n        int placed = 0;\n        if(demandoffers == 0){\n            DemOffAddrs.push(addr);\n        }\n        else{\n            for(i = len - demandoffers ; i < len; i++){\n                if(offdemands[addr].price < offdemands[DemOffAddrs[i]].price && placed == 0){\n                    placed = 1;\n                    DemOffAddrs.push(addr);\n                    DemOffAddrs.push(DemOffAddrs[i]);\n                }\n                else{\n                    DemOffAddrs.push(DemOffAddrs[i]);\n                }\n            }\n            if(placed == 0){\n                DemOffAddrs.push(addr);\n            }\n        }\n    }\n    \n    //****************************************************************\n    // Creates new Offered Generation object\n    function addOffGen(address addr, int generation, int price) private{\n        offgenerations[addr].addr = addr;\n        offgenerations[addr].gen = generation;\n        offgenerations[addr].price = price;\n    }\n    \n    //****************************************************************\n    // IMPORTANT! To save computation and gas GenOffAddrs is appended without deletion.\n    //            The list of current sorted offers is indexed from its length minus the generationoffers.\n    function sortGenoffers(address addr) private{\n        uint i;\n        uint len = GenOffAddrs.length;\n        int placed = 0;\n        if(generationoffers == 0){\n            GenOffAddrs.push(addr);\n        }\n        else{\n            for(i = len - generationoffers; i < len; i++){\n                if(offgenerations[addr].price < offgenerations[GenOffAddrs[i]].price && placed == 0){\n                    placed = 1;\n                    GenOffAddrs.push(addr);\n                    GenOffAddrs.push(GenOffAddrs[i]);\n                }\n                else{\n                    GenOffAddrs.push(GenOffAddrs[i]);\n                }\n            }\n            if(placed == 0){\n                GenOffAddrs.push(addr);\n            }\n        }\n    }\n    \n    //****************************************************************\n    // Updates the status of customer to Critical ****NONE REVERSABLE\n    function updateCrit(address addr) private {\n        customers[addr].userStatus = true;\n        CriticalUsers.push(addr);\n    }\n    \n    //****************************************************************\n    // Check the status of the customer\n    function isCritical(address addr) private constant returns (bool status){\n        return customers[addr].userStatus;\n    }\n    \n    //****************************************************************\n    // Check to see if customer exists\n    function isCustomer(address addr) private constant returns (bool customer){\n        if(customers[addr].isCust){\n            return true;\n        }\n        else{\n            return false;\n        }\n    }\n    \n    //****************************************************************\n    // Test to see check customer balance\n    function getBalance(address addr) public constant returns (uint bal){\n        return customers[addr].customerBalance;\n    }\n    //****************************************************************\n    // Test to see check Market Price\n    function getMP() public constant returns (int bal){\n        return MarketPrice;\n    }\n    \n    \n    //CUSTOMER FUNCTIONS\n    //****************************************************************\n    // Deposit function\n    function depositETH() public payable {                //Changed to deposit function from fallback\n        uint addedfunds = uint(msg.value);\n        if(!isCustomer(msg.sender)){                      //If the sender is not a custmer they get added to customers\n            addCustomer(msg.sender,addedfunds);           //along with their funds submitted\n            Customers.push(msg.sender);\n        }\n        else{\n            customers[msg.sender].customerBalance += addedfunds;   //If sender is customer the balance gets added to their current balance\n        }\n        totalfunds += addedfunds;                         //total funds added is kept tract of for now   \n    }\n    \n    //****************************************************************\n    //****************************************************************\n    // Process for negotiation phase\n    //****************************************************************\n    //****************************************************************\n    \n    //****************************************************************\n    // Critical users submit estimated demand or generation, the difference between the two being overall usage.\n    function estUsage(int Wh) public {\n        if(isCustomer(msg.sender) == false){              //If they are not a customer they have no balance and can not submit usage\n            revert();                                     //Revert to save the cost of gas\n        }\n        if(!isCritical(msg.sender)){                      //If they are not a current critical user they are updated to one.\n            updateCrit(msg.sender);                       //This can not be undone and may need to be changed to ask users in another function\n        }\n        EstUsageWh[msg.sender] = Wh;                   //A postive Wh is a demand and a negative Wh is a generation from critical user.\n        totalEstUsage += Wh;                           //Total usage is kept tract of for now\n    } \n    \n    //****************************************************************\n    // Non-critical users offer demand/price\n     function offerDemand(int demand, int price) public{\n        if(isCritical(msg.sender)){\n            revert();\n        }\n        addOffDem(msg.sender,demand,price);               //Struct created for demand offers\n        sortDemoffers(msg.sender);\n        demandoffers++;                                   //Running total of demand offers\n     \n     }    \n        \n    //****************************************************************\n    // Non-critical users offer generation/price    \n    function offerGeneration(int generation, int price) public{\n        if(isCritical(msg.sender)){\n            revert();\n        }\n        addOffGen(msg.sender,generation,price);           //Struct created for generation offers\n        sortGenoffers(msg.sender);                     //Array to hold open genreation offers    \n        generationoffers++;                               //Running total of demand offers\n    }    \n    \n    //****************************************************************\n    // Network operator uses this function to input Losses.                          //NEED TO MAKE ONLY OWNER \n    function recieveLossesEst(int losses) public {\n        netOpWhLosses = losses;\n        netUsage = totalEstUsage + netOpWhLosses;\n    }\n    \n    //****************************************************************\n    // Function to send Network Operator usage imbalance.\n    //function sendUsageImbalance() private returns (int imbal){\n    //    return netUsage;\n    //}\n    \n    //****************************************************************\n    // Function to balance out the excess demand/generation and set market price for critical users.\n    /*function defineMarketPrice() public{                                                              //ONLY OWNER\n        int acceptGenTotal = 0;\n        int genPrice = 0;\n        int acceptDemTotal = 0;\n        int demPrice = 0;\n\n        //Excess Demand, accept generation offers.\n        if(netUsage > 0) {\n            genORdem = 1;\n            while(netUsage > 0 && generationoffers > 0){\n                if((offgenerations[GenOffAddrs[GenOffAddrs.length - generationoffers]].gen + acceptGenTotal) <= netUsage){\n                    AcceptedGenOff.push(GenOffAddrs[GenOffAddrs.length - generationoffers]);\n                    acceptGenTotal += offgenerations[GenOffAddrs[GenOffAddrs.length - generationoffers]].gen;\n                     //Assuming the price is per Wh. It could be the total price for all Wh as well.\n                    genPrice += int(offgenerations[GenOffAddrs[GenOffAddrs.length - generationoffers]].gen) * int(offgenerations[GenOffAddrs[GenOffAddrs.length - generationoffers]].price);    \n                    netUsage -= offgenerations[GenOffAddrs[GenOffAddrs.length - generationoffers]].gen;\n                    generationoffers--;\n                }\n            }\n        }\n        \n        //Excess Generation, accept demand offers.\n        else {\n            genORdem = 0;\n            while(netUsage < 0 && demandoffers > 0){\n                if((offdemands[DemOffAddrs[DemOffAddrs.length - demandoffers]].dem + acceptDemTotal) <= (netUsage * -1)){\n                    AcceptedDemOff.push(DemOffAddrs[DemOffAddrs.length - demandoffers]);\n                    acceptDemTotal += offdemands[DemOffAddrs[DemOffAddrs.length - demandoffers]].dem;\n                    //Assuming the price is per Wh. It could be the total price for all Wh as well.\n                    demPrice += offdemands[DemOffAddrs[DemOffAddrs.length - demandoffers]].dem * offdemands[DemOffAddrs[DemOffAddrs.length - demandoffers]].price;\n                    netUsage += offdemands[DemOffAddrs[DemOffAddrs.length - demandoffers]].dem;\n                    demandoffers--;\n                }\n            }\n        }\n        \n        //sendUsageImbalance();               // Here when it is needed.\n        \n        //IMPORTANT!!\n        //Depending on how the price is defined this calculation will need to be changed as needed. As for now I am calcuationg Sum of the price in Ether and Sum of the electricity in Wh.\n        MarketPrice = (genPrice + demPrice) / (acceptGenTotal + acceptDemTotal);\n\n    }*/\n    \n    //****************************************************************\n    // Function to balance out the excess demand/generation and set market price for critical users.\n    function defineMP() public{\n        int usage = netUsage;\n        \n        if(netUsage > 0 && generationoffers > 0){\n            posUsage(usage);\n        }\n        \n        else if(netUsage < 0 && demandoffers > 0){\n            negUsage(usage * -1);\n        }\n    }\n    \n    //****************************************************************\n    function posUsage(int usage) private{\n        int acceptGenTotal = 0;\n        int genPrice = 0;\n        uint i;\n        genORdem = 1;\n            for(i = 0; i < generationoffers; i++){\n                if((offgenerations[GenOffAddrs[(GenOffAddrs.length - generationoffers) + i]].gen + acceptGenTotal) <= usage){\n                    AcceptedGenOff.push(GenOffAddrs[(GenOffAddrs.length - generationoffers) + i]);\n                    acceptGenTotal += offgenerations[GenOffAddrs[(GenOffAddrs.length - generationoffers) + i]].gen;\n                    //Assuming the price is per Wh. It could be the total price for all Wh as well.\n                    genPrice += int(offgenerations[GenOffAddrs[(GenOffAddrs.length - generationoffers) + i]].gen) * int(offgenerations[GenOffAddrs[(GenOffAddrs.length - generationoffers) + i]].price);    \n                }\n                else{\n                    return getMP(genPrice,acceptGenTotal);\n                }\n            }\n            return getMP(genPrice,acceptGenTotal);\n    }\n    \n    //****************************************************************\n    function negUsage(int usage) private{\n        int acceptDemTotal = 0;\n        int demPrice = 0;\n        uint i;\n        genORdem = 0;\n            for(i = 0; i < demandoffers; i++){\n                if((offdemands[DemOffAddrs[(DemOffAddrs.length - demandoffers) + i]].dem + acceptDemTotal) <= usage){\n                    AcceptedDemOff.push(DemOffAddrs[(DemOffAddrs.length - demandoffers) + i]);\n                    acceptDemTotal += offdemands[DemOffAddrs[(DemOffAddrs.length - demandoffers) + i]].dem;\n                    //Assuming the price is per Wh. It could be the total price for all Wh as well.\n                    demPrice += offdemands[DemOffAddrs[(DemOffAddrs.length - demandoffers) + i]].dem * offdemands[DemOffAddrs[(DemOffAddrs.length - demandoffers) + i]].price;\n                }\n                else{\n                    return getMP(demPrice,acceptDemTotal);\n                }\n            }\n            return getMP(demPrice,acceptDemTotal);\n    }\n    \n    //****************************************************************\n    function getMP(int price, int total) private {\n        MarketPrice = price / total;\n    }\n    //****************************************************************\n    //****************************************************************\n    // Process for settlement phase\n    //****************************************************************\n    //****************************************************************\n\n    //****************************************************************\n    //Function to gather actual usage.\n    function actUsage(int Wh) public {\n        ActUsageWh[msg.sender] = Wh;                   //A postive Wh is a demand and a negative Wh is a generation from all users.\n        totalActUsage += Wh;                           //Total usage is kept tract of for now\n    }\n    \n    //****************************************************************\n    //Function to calculate usage difference between estimated and actual usage.\n    function calcDiffUsage() private {\n        totalActUsage += netOpWhLosses;\n        \n        for(uint i = 0; i < CriticalUsers.length; i++){\n            customers[CriticalUsers[i]].usageDiff = ActUsageWh[CriticalUsers[i]] - EstUsageWh[CriticalUsers[i]];\n            if(customers[CriticalUsers[i]].usageDiff > 0){\n                PenaltyAccounts.push(CriticalUsers[i]);\n            }\n            else{\n                RewardAccounts.push(CriticalUsers[i]);\n            }\n        }\n    }\n    \n    //****************************************************************\n    //Function for the Network Operator to set Use of System Charge.\n    function  setUseCharge(int amount) public{                                                          //ONLY OWNER\n        UseCharge = amount;    \n    } \n    \n    //****************************************************************\n    //Function to calculate reward/penalty.\n    function rewardPenalty() private {\n        uint i;\n        int payment;\n        \n        int reward = 0;\n        int penalty = 0;\n        \n        int totalReward = 0;\n        \n        int rwdamt = 0;\n        int penamt = 0;\n        reward = MarketPrice * (totalEstUsage / (totalActUsage + totalEstUsage));\n        \n        for(i = 0; i < RewardAccounts.length; i++) {\n            payment = 0;\n            rwdamt = reward * customers[RewardAccounts[i]].usageDiff;\n            if(rwdamt < 0){\n                rwdamt = rwdamt * -1;\n            }\n            totalReward += rwdamt;\n            \n            payment = MarketPrice * ActUsageWh[RewardAccounts[i]];\n            if(payment < 0){\n                payment = payment * -1;\n            }\n        \n            customers[RewardAccounts[i]].customerBalance -= uint((payment + UseCharge - rwdamt));\n        }\n        \n        penalty = totalReward / (totalEstUsage + totalActUsage);\n        \n        for(i = 0; i < PenaltyAccounts.length; i++) {\n            payment = 0;\n            penamt = penalty * customers[RewardAccounts[i]].usageDiff;\n            if(penamt < 0){\n                penamt = penamt * -1;\n            }\n            payment = MarketPrice * ActUsageWh[PenaltyAccounts[i]];\n            if(payment < 0){\n                payment = payment * -1;\n            }\n            \n            customers[PenaltyAccounts[i]].customerBalance -= uint((payment + UseCharge + penamt));\n        }\n        \n        if(genORdem == 1){\n            for(i = 0; i < AcceptedGenOff.length; i++){\n                payment = offgenerations[AcceptedGenOff[i]].price * ActUsageWh[AcceptedGenOff[i]];\n                if(payment < 0){\n                    payment = payment * -1;\n                }\n                customers[AcceptedGenOff[i]].customerBalance += uint(payment - UseCharge);\n            }\n        }\n        else{\n            for(i = 0; i < AcceptedDemOff.length; i++){\n                payment = offdemands[AcceptedDemOff[i]].price * ActUsageWh[AcceptedDemOff[i]];\n                if(payment < 0){\n                    payment = payment * -1;\n                }\n                customers[AcceptedDemOff[i]].customerBalance -= uint(payment + UseCharge); \n            }\n        }\n    }\n    \n    //****************************************************************\n    function settle() public{                                                       //ONLY OWNER\n        uint i;\n        calcDiffUsage();\n        rewardPenalty();\n        for(i = 0; i < Customers.length; i++){\n            Customers[i].transfer(customers[Customers[i]].customerBalance);\n        }\n        \n    }\n    \n    //****************************************************************\n    //Kills the contract and returns all ether to address                           //ONLY OWNER\n    //IMPORTANT Very bad for real contract.  Further steps needed in future!!!!\n    function timeToDie(address addr) public{\n      selfdestruct(addr);\n  }\n} \n",
  "sourcePath": "/home/pi/Emulation/UT-Blockchain-Energy-Trading-Sim/voltchain/contracts/VoltExchange.sol",
  "compiler": {
    "name": "solc",
    "version": "0.4.23+commit.124ca40d.Emscripten.clang"
  },
  "schemaVersion": "2.0.0",
  "updatedAt": "2018-04-26T02:13:51.569Z"
}